{
  "contractName": "BoneToken",
  "abi": [
    {
      "inputs": [
        {
          "internalType": "string",
          "name": "_name",
          "type": "string"
        },
        {
          "internalType": "string",
          "name": "_symbol",
          "type": "string"
        }
      ],
      "payable": false,
      "stateMutability": "nonpayable",
      "type": "constructor"
    },
    {
      "anonymous": false,
      "inputs": [
        {
          "indexed": true,
          "internalType": "address",
          "name": "owner",
          "type": "address"
        },
        {
          "indexed": true,
          "internalType": "address",
          "name": "spender",
          "type": "address"
        },
        {
          "indexed": false,
          "internalType": "uint256",
          "name": "value",
          "type": "uint256"
        }
      ],
      "name": "Approval",
      "type": "event"
    },
    {
      "anonymous": false,
      "inputs": [
        {
          "indexed": true,
          "internalType": "address",
          "name": "delegator",
          "type": "address"
        },
        {
          "indexed": true,
          "internalType": "address",
          "name": "fromDelegate",
          "type": "address"
        },
        {
          "indexed": true,
          "internalType": "address",
          "name": "toDelegate",
          "type": "address"
        }
      ],
      "name": "DelegateChanged",
      "type": "event"
    },
    {
      "anonymous": false,
      "inputs": [
        {
          "indexed": true,
          "internalType": "address",
          "name": "delegate",
          "type": "address"
        },
        {
          "indexed": false,
          "internalType": "uint256",
          "name": "previousBalance",
          "type": "uint256"
        },
        {
          "indexed": false,
          "internalType": "uint256",
          "name": "newBalance",
          "type": "uint256"
        }
      ],
      "name": "DelegateVotesChanged",
      "type": "event"
    },
    {
      "anonymous": false,
      "inputs": [
        {
          "indexed": true,
          "internalType": "address",
          "name": "previousOwner",
          "type": "address"
        },
        {
          "indexed": true,
          "internalType": "address",
          "name": "newOwner",
          "type": "address"
        }
      ],
      "name": "OwnershipTransferred",
      "type": "event"
    },
    {
      "anonymous": false,
      "inputs": [
        {
          "indexed": true,
          "internalType": "address",
          "name": "from",
          "type": "address"
        },
        {
          "indexed": true,
          "internalType": "address",
          "name": "to",
          "type": "address"
        },
        {
          "indexed": false,
          "internalType": "uint256",
          "name": "value",
          "type": "uint256"
        }
      ],
      "name": "Transfer",
      "type": "event"
    },
    {
      "constant": true,
      "inputs": [],
      "name": "DELEGATION_TYPEHASH",
      "outputs": [
        {
          "internalType": "bytes32",
          "name": "",
          "type": "bytes32"
        }
      ],
      "payable": false,
      "stateMutability": "view",
      "type": "function"
    },
    {
      "constant": true,
      "inputs": [],
      "name": "DOMAIN_TYPEHASH",
      "outputs": [
        {
          "internalType": "bytes32",
          "name": "",
          "type": "bytes32"
        }
      ],
      "payable": false,
      "stateMutability": "view",
      "type": "function"
    },
    {
      "constant": true,
      "inputs": [
        {
          "internalType": "address",
          "name": "owner",
          "type": "address"
        },
        {
          "internalType": "address",
          "name": "spender",
          "type": "address"
        }
      ],
      "name": "allowance",
      "outputs": [
        {
          "internalType": "uint256",
          "name": "",
          "type": "uint256"
        }
      ],
      "payable": false,
      "stateMutability": "view",
      "type": "function"
    },
    {
      "constant": false,
      "inputs": [
        {
          "internalType": "address",
          "name": "spender",
          "type": "address"
        },
        {
          "internalType": "uint256",
          "name": "value",
          "type": "uint256"
        }
      ],
      "name": "approve",
      "outputs": [
        {
          "internalType": "bool",
          "name": "",
          "type": "bool"
        }
      ],
      "payable": false,
      "stateMutability": "nonpayable",
      "type": "function"
    },
    {
      "constant": true,
      "inputs": [
        {
          "internalType": "address",
          "name": "owner",
          "type": "address"
        }
      ],
      "name": "balanceOf",
      "outputs": [
        {
          "internalType": "uint256",
          "name": "",
          "type": "uint256"
        }
      ],
      "payable": false,
      "stateMutability": "view",
      "type": "function"
    },
    {
      "constant": true,
      "inputs": [
        {
          "internalType": "address",
          "name": "",
          "type": "address"
        },
        {
          "internalType": "uint32",
          "name": "",
          "type": "uint32"
        }
      ],
      "name": "checkpoints",
      "outputs": [
        {
          "internalType": "uint32",
          "name": "fromBlock",
          "type": "uint32"
        },
        {
          "internalType": "uint256",
          "name": "votes",
          "type": "uint256"
        }
      ],
      "payable": false,
      "stateMutability": "view",
      "type": "function"
    },
    {
      "constant": true,
      "inputs": [],
      "name": "decimals",
      "outputs": [
        {
          "internalType": "uint8",
          "name": "",
          "type": "uint8"
        }
      ],
      "payable": false,
      "stateMutability": "view",
      "type": "function"
    },
    {
      "constant": false,
      "inputs": [
        {
          "internalType": "address",
          "name": "spender",
          "type": "address"
        },
        {
          "internalType": "uint256",
          "name": "subtractedValue",
          "type": "uint256"
        }
      ],
      "name": "decreaseAllowance",
      "outputs": [
        {
          "internalType": "bool",
          "name": "",
          "type": "bool"
        }
      ],
      "payable": false,
      "stateMutability": "nonpayable",
      "type": "function"
    },
    {
      "constant": false,
      "inputs": [
        {
          "internalType": "address",
          "name": "spender",
          "type": "address"
        },
        {
          "internalType": "uint256",
          "name": "addedValue",
          "type": "uint256"
        }
      ],
      "name": "increaseAllowance",
      "outputs": [
        {
          "internalType": "bool",
          "name": "",
          "type": "bool"
        }
      ],
      "payable": false,
      "stateMutability": "nonpayable",
      "type": "function"
    },
    {
      "constant": true,
      "inputs": [],
      "name": "isOwner",
      "outputs": [
        {
          "internalType": "bool",
          "name": "",
          "type": "bool"
        }
      ],
      "payable": false,
      "stateMutability": "view",
      "type": "function"
    },
    {
      "constant": true,
      "inputs": [],
      "name": "name",
      "outputs": [
        {
          "internalType": "string",
          "name": "",
          "type": "string"
        }
      ],
      "payable": false,
      "stateMutability": "view",
      "type": "function"
    },
    {
      "constant": true,
      "inputs": [
        {
          "internalType": "address",
          "name": "",
          "type": "address"
        }
      ],
      "name": "nonces",
      "outputs": [
        {
          "internalType": "uint256",
          "name": "",
          "type": "uint256"
        }
      ],
      "payable": false,
      "stateMutability": "view",
      "type": "function"
    },
    {
      "constant": true,
      "inputs": [
        {
          "internalType": "address",
          "name": "",
          "type": "address"
        }
      ],
      "name": "numCheckpoints",
      "outputs": [
        {
          "internalType": "uint32",
          "name": "",
          "type": "uint32"
        }
      ],
      "payable": false,
      "stateMutability": "view",
      "type": "function"
    },
    {
      "constant": true,
      "inputs": [],
      "name": "owner",
      "outputs": [
        {
          "internalType": "address",
          "name": "",
          "type": "address"
        }
      ],
      "payable": false,
      "stateMutability": "view",
      "type": "function"
    },
    {
      "constant": false,
      "inputs": [],
      "name": "renounceOwnership",
      "outputs": [],
      "payable": false,
      "stateMutability": "nonpayable",
      "type": "function"
    },
    {
      "constant": true,
      "inputs": [],
      "name": "symbol",
      "outputs": [
        {
          "internalType": "string",
          "name": "",
          "type": "string"
        }
      ],
      "payable": false,
      "stateMutability": "view",
      "type": "function"
    },
    {
      "constant": true,
      "inputs": [],
      "name": "totalSupply",
      "outputs": [
        {
          "internalType": "uint256",
          "name": "",
          "type": "uint256"
        }
      ],
      "payable": false,
      "stateMutability": "view",
      "type": "function"
    },
    {
      "constant": false,
      "inputs": [
        {
          "internalType": "address",
          "name": "to",
          "type": "address"
        },
        {
          "internalType": "uint256",
          "name": "value",
          "type": "uint256"
        }
      ],
      "name": "transfer",
      "outputs": [
        {
          "internalType": "bool",
          "name": "",
          "type": "bool"
        }
      ],
      "payable": false,
      "stateMutability": "nonpayable",
      "type": "function"
    },
    {
      "constant": false,
      "inputs": [
        {
          "internalType": "address",
          "name": "from",
          "type": "address"
        },
        {
          "internalType": "address",
          "name": "to",
          "type": "address"
        },
        {
          "internalType": "uint256",
          "name": "value",
          "type": "uint256"
        }
      ],
      "name": "transferFrom",
      "outputs": [
        {
          "internalType": "bool",
          "name": "",
          "type": "bool"
        }
      ],
      "payable": false,
      "stateMutability": "nonpayable",
      "type": "function"
    },
    {
      "constant": false,
      "inputs": [
        {
          "internalType": "address",
          "name": "newOwner",
          "type": "address"
        }
      ],
      "name": "transferOwnership",
      "outputs": [],
      "payable": false,
      "stateMutability": "nonpayable",
      "type": "function"
    },
    {
      "constant": false,
      "inputs": [
        {
          "internalType": "address",
          "name": "_to",
          "type": "address"
        },
        {
          "internalType": "uint256",
          "name": "_amount",
          "type": "uint256"
        }
      ],
      "name": "mint",
      "outputs": [],
      "payable": false,
      "stateMutability": "nonpayable",
      "type": "function"
    },
    {
      "constant": true,
      "inputs": [
        {
          "internalType": "address",
          "name": "delegator",
          "type": "address"
        }
      ],
      "name": "delegates",
      "outputs": [
        {
          "internalType": "address",
          "name": "",
          "type": "address"
        }
      ],
      "payable": false,
      "stateMutability": "view",
      "type": "function"
    },
    {
      "constant": false,
      "inputs": [
        {
          "internalType": "address",
          "name": "delegatee",
          "type": "address"
        }
      ],
      "name": "delegate",
      "outputs": [],
      "payable": false,
      "stateMutability": "nonpayable",
      "type": "function"
    },
    {
      "constant": false,
      "inputs": [
        {
          "internalType": "address",
          "name": "delegatee",
          "type": "address"
        },
        {
          "internalType": "uint256",
          "name": "nonce",
          "type": "uint256"
        },
        {
          "internalType": "uint256",
          "name": "expiry",
          "type": "uint256"
        },
        {
          "internalType": "uint8",
          "name": "v",
          "type": "uint8"
        },
        {
          "internalType": "bytes32",
          "name": "r",
          "type": "bytes32"
        },
        {
          "internalType": "bytes32",
          "name": "s",
          "type": "bytes32"
        }
      ],
      "name": "delegateBySig",
      "outputs": [],
      "payable": false,
      "stateMutability": "nonpayable",
      "type": "function"
    },
    {
      "constant": true,
      "inputs": [
        {
          "internalType": "address",
          "name": "account",
          "type": "address"
        }
      ],
      "name": "getCurrentVotes",
      "outputs": [
        {
          "internalType": "uint256",
          "name": "",
          "type": "uint256"
        }
      ],
      "payable": false,
      "stateMutability": "view",
      "type": "function"
    },
    {
      "constant": true,
      "inputs": [
        {
          "internalType": "address",
          "name": "account",
          "type": "address"
        },
        {
          "internalType": "uint256",
          "name": "blockNumber",
          "type": "uint256"
        }
      ],
      "name": "getPriorVotes",
      "outputs": [
        {
          "internalType": "uint256",
          "name": "",
          "type": "uint256"
        }
      ],
      "payable": false,
      "stateMutability": "view",
      "type": "function"
    }
  ],
  "bytecode": "0x60806040523480156200001157600080fd5b5060405162001a6538038062001a65833981810160405260408110156200003757600080fd5b81019080805160405193929190846401000000008211156200005857600080fd5b9083019060208201858111156200006e57600080fd5b82516401000000008111828201881017156200008957600080fd5b82525081516020918201929091019080838360005b83811015620000b85781810151838201526020016200009e565b50505050905090810190601f168015620000e65780820380516001836020036101000a031916815260200191505b50604052602001805160405193929190846401000000008211156200010a57600080fd5b9083019060208201858111156200012057600080fd5b82516401000000008111828201881017156200013b57600080fd5b82525081516020918201929091019080838360005b838110156200016a57818101518382015260200162000150565b50505050905090810190601f168015620001985780820380516001836020036101000a031916815260200191505b50604052505050818160128260039080519060200190620001bb92919062000240565b508151620001d190600490602085019062000240565b506005805460ff191660ff9290921691909117610100600160a81b03191661010033810291909117918290556040516001600160a01b0391909204169250600091507f8be0079c531659141344cd1fd0a4f28419497f9722a3daafe3b4186f6b6457e0908290a35050620002e5565b828054600181600116156101000203166002900490600052602060002090601f016020900481019282601f106200028357805160ff1916838001178555620002b3565b82800160010185558215620002b3579182015b82811115620002b357825182559160200191906001019062000296565b50620002c1929150620002c5565b5090565b620002e291905b80821115620002c15760008155600101620002cc565b90565b61177080620002f56000396000f3fe608060405234801561001057600080fd5b506004361061018e5760003560e01c8063782d6fe1116100de578063a9059cbb11610097578063dd62ed3e11610071578063dd62ed3e14610524578063e7a324dc14610552578063f1127ed81461055a578063f2fde38b146105ac5761018e565b8063a9059cbb1461048b578063b4b5ea57146104b7578063c3cda520146104dd5761018e565b8063782d6fe1146103f55780637ecebe00146104215780638da5cb5b146104475780638f32d59b1461044f57806395d89b4114610457578063a457c2d71461045f5761018e565b8063395093511161014b5780635c19a95c116101255780635c19a95c146103625780636fcfff451461038857806370a08231146103c7578063715018a6146103ed5761018e565b806339509351146102c657806340c10f19146102f2578063587cde1e146103205761018e565b806306fdde0314610193578063095ea7b31461021057806318160ddd1461025057806320606b701461026a57806323b872dd14610272578063313ce567146102a8575b600080fd5b61019b6105d2565b6040805160208082528351818301528351919283929083019185019080838360005b838110156101d55781810151838201526020016101bd565b50505050905090810190601f1680156102025780820380516001836020036101000a031916815260200191505b509250505060405180910390f35b61023c6004803603604081101561022657600080fd5b506001600160a01b038135169060200135610668565b604080519115158252519081900360200190f35b61025861067f565b60408051918252519081900360200190f35b610258610685565b61023c6004803603606081101561028857600080fd5b506001600160a01b038135811691602081013590911690604001356106a0565b6102b06106f7565b6040805160ff9092168252519081900360200190f35b61023c600480360360408110156102dc57600080fd5b506001600160a01b038135169060200135610700565b61031e6004803603604081101561030857600080fd5b506001600160a01b03813516906020013561073c565b005b6103466004803603602081101561033657600080fd5b50356001600160a01b0316610780565b604080516001600160a01b039092168252519081900360200190f35b61031e6004803603602081101561037857600080fd5b50356001600160a01b031661079e565b6103ae6004803603602081101561039e57600080fd5b50356001600160a01b03166107ab565b6040805163ffffffff9092168252519081900360200190f35b610258600480360360208110156103dd57600080fd5b50356001600160a01b03166107c3565b61031e6107de565b6102586004803603604081101561040b57600080fd5b506001600160a01b03813516906020013561083f565b6102586004803603602081101561043757600080fd5b50356001600160a01b0316610a47565b610346610a59565b61023c610a6d565b61019b610a83565b61023c6004803603604081101561047557600080fd5b506001600160a01b038135169060200135610ae4565b61023c600480360360408110156104a157600080fd5b506001600160a01b038135169060200135610b20565b610258600480360360208110156104cd57600080fd5b50356001600160a01b0316610b2d565b61031e600480360360c08110156104f357600080fd5b506001600160a01b038135169060208101359060408101359060ff6060820135169060808101359060a00135610b91565b6102586004803603604081101561053a57600080fd5b506001600160a01b0381358116916020013516610e07565b610258610e32565b61058c6004803603604081101561057057600080fd5b5080356001600160a01b0316906020013563ffffffff16610e4d565b6040805163ffffffff909316835260208301919091528051918290030190f35b61031e600480360360208110156105c257600080fd5b50356001600160a01b0316610e7a565b60038054604080516020601f600260001961010060018816150201909516949094049384018190048102820181019092528281526060939092909183018282801561065e5780601f106106335761010080835404028352916020019161065e565b820191906000526020600020905b81548152906001019060200180831161064157829003601f168201915b5050505050905090565b6000610675338484610e94565b5060015b92915050565b60025490565b60405180604361161d82396043019050604051809103902081565b60006106ad848484610f1c565b6001600160a01b0384166000908152600160209081526040808320338085529252909120546106ed9186916106e8908663ffffffff610f5e16565b610e94565b5060019392505050565b60055460ff1690565b3360008181526001602090815260408083206001600160a01b038716845290915281205490916106759185906106e8908663ffffffff610f7316565b610744610a6d565b61074d57600080fd5b6107578282610f85565b6001600160a01b0380831660009081526006602052604081205461077c92168361102d565b5050565b6001600160a01b039081166000908152600660205260409020541690565b6107a83382611176565b50565b60086020526000908152604090205463ffffffff1681565b6001600160a01b031660009081526020819052604090205490565b6107e6610a6d565b6107ef57600080fd5b60055460405160009161010090046001600160a01b0316907f8be0079c531659141344cd1fd0a4f28419497f9722a3daafe3b4186f6b6457e0908390a360058054610100600160a81b0319169055565b600043821061087f5760405162461bcd60e51b81526004018080602001828103825260278152602001806115c06027913960400191505060405180910390fd5b6001600160a01b03831660009081526008602052604090205463ffffffff16806108ad576000915050610679565b6001600160a01b038416600090815260076020908152604080832063ffffffff60001986018116855292529091205416831061091c576001600160a01b03841660009081526007602090815260408083206000199490940163ffffffff16835292905220600101549050610679565b6001600160a01b038416600090815260076020908152604080832083805290915290205463ffffffff16831015610957576000915050610679565b600060001982015b8163ffffffff168163ffffffff161115610a1057600282820363ffffffff160481036109896115a8565b506001600160a01b038716600090815260076020908152604080832063ffffffff8086168552908352928190208151808301909252805490931680825260019093015491810191909152908714156109eb576020015194506106799350505050565b805163ffffffff16871115610a0257819350610a09565b6001820392505b505061095f565b506001600160a01b038516600090815260076020908152604080832063ffffffff9094168352929052206001015491505092915050565b60096020526000908152604090205481565b60055461010090046001600160a01b031690565b60055461010090046001600160a01b0316331490565b60048054604080516020601f600260001961010060018816150201909516949094049384018190048102820181019092528281526060939092909183018282801561065e5780601f106106335761010080835404028352916020019161065e565b3360008181526001602090815260408083206001600160a01b038716845290915281205490916106759185906106e8908663ffffffff610f5e16565b6000610675338484610f1c565b6001600160a01b03811660009081526008602052604081205463ffffffff1680610b58576000610b8a565b6001600160a01b038316600090815260076020908152604080832063ffffffff60001986011684529091529020600101545b9392505050565b6000604051808061161d6043913960430190506040518091039020610bb46105d2565b80519060200120610bc361120b565b3060405160200180858152602001848152602001838152602001826001600160a01b03166001600160a01b03168152602001945050505050604051602081830303815290604052805190602001209050600060405180806116ba603a91396040805191829003603a0182206020808401919091526001600160a01b038c1683830152606083018b905260808084018b90528251808503909101815260a08401835280519082012061190160f01b60c085015260c2840187905260e2808501829052835180860390910181526101028501808552815191840191909120600091829052610122860180865281905260ff8c1661014287015261016286018b905261018286018a9052935191965092945091926001926101a28083019392601f198301929081900390910190855afa158015610d01573d6000803e3d6000fd5b5050604051601f1901519150506001600160a01b038116610d535760405162461bcd60e51b81526004018080602001828103825260268152602001806116946026913960400191505060405180910390fd5b6001600160a01b03811660009081526009602052604090208054600181019091558914610db15760405162461bcd60e51b81526004018080602001828103825260228152602001806116f46022913960400191505060405180910390fd5b87421115610df05760405162461bcd60e51b81526004018080602001828103825260268152602001806117166026913960400191505060405180910390fd5b610dfa818b611176565b505050505b505050505050565b6001600160a01b03918216600090815260016020908152604080832093909416825291909152205490565b60405180603a6116ba8239603a019050604051809103902081565b60076020908152600092835260408084209091529082529020805460019091015463ffffffff9091169082565b610e82610a6d565b610e8b57600080fd5b6107a88161120f565b6001600160a01b038216610ea757600080fd5b6001600160a01b038316610eba57600080fd5b6001600160a01b03808416600081815260016020908152604080832094871680845294825291829020859055815185815291517f8c5be1e5ebec7d5bd14f71427d1e84f3dd0314c0f7b2291e5b200ac8c7c3b9259281900390910190a3505050565b610f27838383611289565b6001600160a01b03808416600090815260066020526040808220548584168352912054610f599291821691168361102d565b505050565b600082821115610f6d57600080fd5b50900390565b600082820183811015610b8a57600080fd5b6001600160a01b038216610f9857600080fd5b600254610fab908263ffffffff610f7316565b6002556001600160a01b038216600090815260208190526040902054610fd7908263ffffffff610f7316565b6001600160a01b0383166000818152602081815260408083209490945583518581529351929391927fddf252ad1be2c89b69c2b068fc378daa952ba7f163c4a11628f55a4df523b3ef9281900390910190a35050565b816001600160a01b0316836001600160a01b03161415801561104f5750600081115b15610f59576001600160a01b038316156110e7576001600160a01b03831660009081526008602052604081205463ffffffff16908161108f5760006110c1565b6001600160a01b038516600090815260076020908152604080832063ffffffff60001987011684529091529020600101545b905060006110d5828563ffffffff610f5e16565b90506110e386848484611354565b5050505b6001600160a01b03821615610f59576001600160a01b03821660009081526008602052604081205463ffffffff169081611122576000611154565b6001600160a01b038416600090815260076020908152604080832063ffffffff60001987011684529091529020600101545b90506000611168828563ffffffff610f7316565b9050610dff85848484611354565b6001600160a01b038083166000908152600660205260408120549091169061119d846107c3565b6001600160a01b0385811660008181526006602052604080822080546001600160a01b031916898616908117909155905194955093928616927f3134e8a2e6d97e929a7e54011ea5485d7d196dd5f0ba4d4ef95803e8e3fc257f9190a461120582848361102d565b50505050565b4690565b6001600160a01b03811661122257600080fd5b6005546040516001600160a01b0380841692610100900416907f8be0079c531659141344cd1fd0a4f28419497f9722a3daafe3b4186f6b6457e090600090a3600580546001600160a01b0390921661010002610100600160a81b0319909216919091179055565b6001600160a01b03821661129c57600080fd5b6001600160a01b0383166000908152602081905260409020546112c5908263ffffffff610f5e16565b6001600160a01b0380851660009081526020819052604080822093909355908416815220546112fa908263ffffffff610f7316565b6001600160a01b038084166000818152602081815260409182902094909455805185815290519193928716927fddf252ad1be2c89b69c2b068fc378daa952ba7f163c4a11628f55a4df523b3ef92918290030190a3505050565b6000611378436040518060600160405280603481526020016116606034913961150d565b905060008463ffffffff161180156113c157506001600160a01b038516600090815260076020908152604080832063ffffffff6000198901811685529252909120548282169116145b156113fe576001600160a01b038516600090815260076020908152604080832063ffffffff600019890116845290915290206001018290556114c3565b60408051808201825263ffffffff838116825260208083018681526001600160a01b038a166000908152600783528581208a85168083529352949094209251835463ffffffff1916908316178355925160019283015590860116116114945760405162461bcd60e51b81526004018080602001828103825260368152602001806115e76036913960400191505060405180910390fd5b6001600160a01b0385166000908152600860205260409020805463ffffffff19166001860163ffffffff161790555b604080518481526020810184905281516001600160a01b038816927fdec2bacdd2f05b59de34da9b523dff8be42e5e38e818c82fdb0bae774387a724928290030190a25050505050565b60008164010000000084106115a05760405162461bcd60e51b81526004018080602001828103825283818151815260200191508051906020019080838360005b8381101561156557818101518382015260200161154d565b50505050905090810190601f1680156115925780820380516001836020036101000a031916815260200191505b509250505060405180910390fd5b509192915050565b60408051808201909152600080825260208201529056fe424f4e453a3a6765745072696f72566f7465733a206e6f74207965742064657465726d696e6564424f4e453a3a5f7772697465436865636b706f696e743a206e657720636865636b706f696e7420657863656564732033322062697473454950373132446f6d61696e28737472696e67206e616d652c75696e7432353620636861696e49642c6164647265737320766572696679696e67436f6e747261637429424f4e453a3a5f7772697465436865636b706f696e743a20626c6f636b206e756d62657220657863656564732033322062697473424f4e453a3a64656c656761746542795369673a20696e76616c6964207369676e617475726544656c65676174696f6e28616464726573732064656c6567617465652c75696e74323536206e6f6e63652c75696e743235362065787069727929424f4e453a3a64656c656761746542795369673a20696e76616c6964206e6f6e6365424f4e453a3a64656c656761746542795369673a207369676e61747572652065787069726564a265627a7a72315820b743d3886b6c0d56f411033502756dd27a18d7195849273e8c492b9bba73c3ba64736f6c63430005110032",
  "source": "pragma solidity ^0.5.2;\n\nimport \"openzeppelin-solidity/contracts/token/ERC20/ERC20.sol\";\nimport \"openzeppelin-solidity/contracts/token/ERC20/ERC20Detailed.sol\";\nimport { Ownable } from \"openzeppelin-solidity/contracts/ownership/Ownable.sol\";\n\n// BoneToken with Governance.\ncontract BoneToken is ERC20, ERC20Detailed, Ownable {\n\n  constructor(string memory _name, string memory _symbol) public ERC20Detailed(_name, _symbol, 18) {}\n\n  /// @notice Creates `_amount` token to `_to`. Must only be called by the owner (TopDog).\n  function mint(address _to, uint256 _amount) public onlyOwner {\n    _mint(_to, _amount);\n    _moveDelegates(address(0), _delegates[_to], _amount);\n  }\n\n  function _transfer(address sender, address recipient, uint256 amount) internal {\n    super._transfer(sender, recipient, amount);\n    _moveDelegates(_delegates[sender], _delegates[recipient], amount);\n  }\n\n  // Copied and modified from YAM code:\n  // https://github.com/yam-finance/yam-protocol/blob/master/contracts/token/YAMGovernanceStorage.sol\n  // https://github.com/yam-finance/yam-protocol/blob/master/contracts/token/YAMGovernance.sol\n  // Which is copied and modified from COMPOUND:\n  // https://github.com/compound-finance/compound-protocol/blob/master/contracts/Governance/Comp.sol\n\n  /// @dev A record of each accounts delegate\n  mapping (address => address) internal _delegates;\n\n  /// @notice A checkpoint for marking number of votes from a given block\n  struct Checkpoint {\n    uint32 fromBlock;\n    uint256 votes;\n  }\n\n  /// @notice A record of votes checkpoints for each account, by index\n  mapping (address => mapping (uint32 => Checkpoint)) public checkpoints;\n\n  /// @notice The number of checkpoints for each account\n  mapping (address => uint32) public numCheckpoints;\n\n  /// @notice The EIP-712 typehash for the contract's domain\n  bytes32 public constant DOMAIN_TYPEHASH = keccak256(\"EIP712Domain(string name,uint256 chainId,address verifyingContract)\");\n\n  /// @notice The EIP-712 typehash for the delegation struct used by the contract\n  bytes32 public constant DELEGATION_TYPEHASH = keccak256(\"Delegation(address delegatee,uint256 nonce,uint256 expiry)\");\n\n  /// @notice A record of states for signing / validating signatures\n  mapping (address => uint) public nonces;\n\n  /// @notice An event thats emitted when an account changes its delegate\n  event DelegateChanged(address indexed delegator, address indexed fromDelegate, address indexed toDelegate);\n\n  /// @notice An event thats emitted when a delegate account's vote balance changes\n  event DelegateVotesChanged(address indexed delegate, uint previousBalance, uint newBalance);\n\n  /**\n   * @notice Delegate votes from `msg.sender` to `delegatee`\n   * @param delegator The address to get delegatee for\n   */\n  function delegates(address delegator)\n  external\n  view\n  returns (address)\n  {\n    return _delegates[delegator];\n  }\n\n  /**\n   * @notice Delegate votes from `msg.sender` to `delegatee`\n   * @param delegatee The address to delegate votes to\n   */\n  function delegate(address delegatee) external {\n    return _delegate(msg.sender, delegatee);\n  }\n\n  /**\n   * @notice Delegates votes from signatory to `delegatee`\n   * @param delegatee The address to delegate votes to\n   * @param nonce The contract state required to match the signature\n   * @param expiry The time at which to expire the signature\n   * @param v The recovery byte of the signature\n   * @param r Half of the ECDSA signature pair\n   * @param s Half of the ECDSA signature pair\n   */\n  function delegateBySig(\n    address delegatee,\n    uint nonce,\n    uint expiry,\n    uint8 v,\n    bytes32 r,\n    bytes32 s\n  )\n  external\n  {\n    bytes32 domainSeparator = keccak256(\n      abi.encode(\n        DOMAIN_TYPEHASH,\n        keccak256(bytes(name())),\n        getChainId(),\n        address(this)\n      )\n    );\n\n    bytes32 structHash = keccak256(\n      abi.encode(\n        DELEGATION_TYPEHASH,\n        delegatee,\n        nonce,\n        expiry\n      )\n    );\n\n    bytes32 digest = keccak256(\n      abi.encodePacked(\n        \"\\x19\\x01\",\n        domainSeparator,\n        structHash\n      )\n    );\n\n    address signatory = ecrecover(digest, v, r, s);\n    require(signatory != address(0), \"BONE::delegateBySig: invalid signature\");\n    require(nonce == nonces[signatory]++, \"BONE::delegateBySig: invalid nonce\");\n    require(now <= expiry, \"BONE::delegateBySig: signature expired\");\n    return _delegate(signatory, delegatee);\n  }\n\n  /**\n   * @notice Gets the current votes balance for `account`\n   * @param account The address to get votes balance\n   * @return The number of current votes for `account`\n   */\n  function getCurrentVotes(address account)\n  external\n  view\n  returns (uint256)\n  {\n    uint32 nCheckpoints = numCheckpoints[account];\n    return nCheckpoints > 0 ? checkpoints[account][nCheckpoints - 1].votes : 0;\n  }\n\n  /**\n   * @notice Determine the prior number of votes for an account as of a block number\n   * @dev Block number must be a finalized block or else this function will revert to prevent misinformation.\n   * @param account The address of the account to check\n   * @param blockNumber The block number to get the vote balance at\n   * @return The number of votes the account had as of the given block\n   */\n  function getPriorVotes(address account, uint blockNumber)\n  external\n  view\n  returns (uint256)\n  {\n    require(blockNumber < block.number, \"BONE::getPriorVotes: not yet determined\");\n\n    uint32 nCheckpoints = numCheckpoints[account];\n    if (nCheckpoints == 0) {\n      return 0;\n    }\n\n    // First check most recent balance\n    if (checkpoints[account][nCheckpoints - 1].fromBlock <= blockNumber) {\n      return checkpoints[account][nCheckpoints - 1].votes;\n    }\n\n    // Next check implicit zero balance\n    if (checkpoints[account][0].fromBlock > blockNumber) {\n      return 0;\n    }\n\n    uint32 lower = 0;\n    uint32 upper = nCheckpoints - 1;\n    while (upper > lower) {\n      uint32 center = upper - (upper - lower) / 2; // ceil, avoiding overflow\n      Checkpoint memory cp = checkpoints[account][center];\n      if (cp.fromBlock == blockNumber) {\n        return cp.votes;\n      } else if (cp.fromBlock < blockNumber) {\n        lower = center;\n      } else {\n        upper = center - 1;\n      }\n    }\n    return checkpoints[account][lower].votes;\n  }\n\n  function _delegate(address delegator, address delegatee)\n  internal\n  {\n    address currentDelegate = _delegates[delegator];\n    uint256 delegatorBalance = balanceOf(delegator); // balance of underlying BONEs (not scaled);\n    _delegates[delegator] = delegatee;\n\n    emit DelegateChanged(delegator, currentDelegate, delegatee);\n\n    _moveDelegates(currentDelegate, delegatee, delegatorBalance);\n  }\n\n  function _moveDelegates(address srcRep, address dstRep, uint256 amount) internal {\n    if (srcRep != dstRep && amount > 0) {\n      if (srcRep != address(0)) {\n        // decrease old representative\n        uint32 srcRepNum = numCheckpoints[srcRep];\n        uint256 srcRepOld = srcRepNum > 0 ? checkpoints[srcRep][srcRepNum - 1].votes : 0;\n        uint256 srcRepNew = srcRepOld.sub(amount);\n        _writeCheckpoint(srcRep, srcRepNum, srcRepOld, srcRepNew);\n      }\n\n      if (dstRep != address(0)) {\n        // increase new representative\n        uint32 dstRepNum = numCheckpoints[dstRep];\n        uint256 dstRepOld = dstRepNum > 0 ? checkpoints[dstRep][dstRepNum - 1].votes : 0;\n        uint256 dstRepNew = dstRepOld.add(amount);\n        _writeCheckpoint(dstRep, dstRepNum, dstRepOld, dstRepNew);\n      }\n    }\n  }\n\n  function _writeCheckpoint(\n    address delegatee,\n    uint32 nCheckpoints,\n    uint256 oldVotes,\n    uint256 newVotes\n  )\n  internal\n  {\n    uint32 blockNumber = safe32(block.number, \"BONE::_writeCheckpoint: block number exceeds 32 bits\");\n\n    if (nCheckpoints > 0 && checkpoints[delegatee][nCheckpoints - 1].fromBlock == blockNumber) {\n      checkpoints[delegatee][nCheckpoints - 1].votes = newVotes;\n    } else {\n      checkpoints[delegatee][nCheckpoints] = Checkpoint(blockNumber, newVotes);\n      require(nCheckpoints + 1 > nCheckpoints, \"BONE::_writeCheckpoint: new checkpoint exceeds 32 bits\");\n      numCheckpoints[delegatee] = nCheckpoints + 1;\n    }\n\n    emit DelegateVotesChanged(delegatee, oldVotes, newVotes);\n  }\n\n  function safe32(uint n, string memory errorMessage) internal pure returns (uint32) {\n    require(n < 2**32, errorMessage);\n    return uint32(n);\n  }\n\n  function getChainId() internal pure returns (uint) {\n    uint256 chainId;\n    assembly { chainId := chainid() }\n    return chainId;\n  }\n}\n",
  "sourcePath": "/home/ubuntu/alpha_testnet_v2/generated_networks/6924/code/contracts/contracts/common/tokens/BoneToken.sol",
  "compiler": {
    "name": "solc",
    "version": "0.5.17+commit.d19bba13.Linux.g++"
  },
  "schemaVersion": "3.0.14",
  "updatedAt": "2022-05-03T09:47:27.445Z",
  "devdoc": {
    "methods": {
      "allowance(address,address)": {
        "details": "Function to check the amount of tokens that an owner allowed to a spender.",
        "params": {
          "owner": "address The address which owns the funds.",
          "spender": "address The address which will spend the funds."
        },
        "return": "A uint256 specifying the amount of tokens still available for the spender."
      },
      "approve(address,uint256)": {
        "details": "Approve the passed address to spend the specified amount of tokens on behalf of msg.sender. Beware that changing an allowance with this method brings the risk that someone may use both the old and the new allowance by unfortunate transaction ordering. One possible solution to mitigate this race condition is to first reduce the spender's allowance to 0 and set the desired value afterwards: https://github.com/ethereum/EIPs/issues/20#issuecomment-263524729",
        "params": {
          "spender": "The address which will spend the funds.",
          "value": "The amount of tokens to be spent."
        }
      },
      "balanceOf(address)": {
        "details": "Gets the balance of the specified address.",
        "params": {
          "owner": "The address to query the balance of."
        },
        "return": "A uint256 representing the amount owned by the passed address."
      },
      "decimals()": {
        "return": "the number of decimals of the token."
      },
      "decreaseAllowance(address,uint256)": {
        "details": "Decrease the amount of tokens that an owner allowed to a spender. approve should be called when _allowed[msg.sender][spender] == 0. To decrement allowed value is better to use this function to avoid 2 calls (and wait until the first transaction is mined) From MonolithDAO Token.sol Emits an Approval event.",
        "params": {
          "spender": "The address which will spend the funds.",
          "subtractedValue": "The amount of tokens to decrease the allowance by."
        }
      },
      "delegate(address)": {
        "params": {
          "delegatee": "The address to delegate votes to"
        }
      },
      "delegateBySig(address,uint256,uint256,uint8,bytes32,bytes32)": {
        "params": {
          "delegatee": "The address to delegate votes to",
          "expiry": "The time at which to expire the signature",
          "nonce": "The contract state required to match the signature",
          "r": "Half of the ECDSA signature pair",
          "s": "Half of the ECDSA signature pair",
          "v": "The recovery byte of the signature"
        }
      },
      "delegates(address)": {
        "params": {
          "delegator": "The address to get delegatee for"
        }
      },
      "getCurrentVotes(address)": {
        "params": {
          "account": "The address to get votes balance"
        },
        "return": "The number of current votes for `account`"
      },
      "getPriorVotes(address,uint256)": {
        "details": "Block number must be a finalized block or else this function will revert to prevent misinformation.",
        "params": {
          "account": "The address of the account to check",
          "blockNumber": "The block number to get the vote balance at"
        },
        "return": "The number of votes the account had as of the given block"
      },
      "increaseAllowance(address,uint256)": {
        "details": "Increase the amount of tokens that an owner allowed to a spender. approve should be called when _allowed[msg.sender][spender] == 0. To increment allowed value is better to use this function to avoid 2 calls (and wait until the first transaction is mined) From MonolithDAO Token.sol Emits an Approval event.",
        "params": {
          "addedValue": "The amount of tokens to increase the allowance by.",
          "spender": "The address which will spend the funds."
        }
      },
      "isOwner()": {
        "return": "true if `msg.sender` is the owner of the contract."
      },
      "name()": {
        "return": "the name of the token."
      },
      "owner()": {
        "return": "the address of the owner."
      },
      "renounceOwnership()": {
        "details": "Allows the current owner to relinquish control of the contract. It will not be possible to call the functions with the `onlyOwner` modifier anymore."
      },
      "symbol()": {
        "return": "the symbol of the token."
      },
      "totalSupply()": {
        "details": "Total number of tokens in existence"
      },
      "transfer(address,uint256)": {
        "details": "Transfer token to a specified address",
        "params": {
          "to": "The address to transfer to.",
          "value": "The amount to be transferred."
        }
      },
      "transferFrom(address,address,uint256)": {
        "details": "Transfer tokens from one address to another. Note that while this function emits an Approval event, this is not required as per the specification, and other compliant implementations may not emit the event.",
        "params": {
          "from": "address The address which you want to send tokens from",
          "to": "address The address which you want to transfer to",
          "value": "uint256 the amount of tokens to be transferred"
        }
      },
      "transferOwnership(address)": {
        "details": "Allows the current owner to transfer control of the contract to a newOwner.",
        "params": {
          "newOwner": "The address to transfer ownership to."
        }
      }
    }
  },
  "userdoc": {
    "methods": {
      "delegate(address)": {
        "notice": "Delegate votes from `msg.sender` to `delegatee`"
      },
      "delegateBySig(address,uint256,uint256,uint8,bytes32,bytes32)": {
        "notice": "Delegates votes from signatory to `delegatee`"
      },
      "delegates(address)": {
        "notice": "Delegate votes from `msg.sender` to `delegatee`"
      },
      "getCurrentVotes(address)": {
        "notice": "Gets the current votes balance for `account`"
      },
      "getPriorVotes(address,uint256)": {
        "notice": "Determine the prior number of votes for an account as of a block number"
      },
      "mint(address,uint256)": {
        "notice": "Creates `_amount` token to `_to`. Must only be called by the owner (TopDog)."
      },
      "renounceOwnership()": {
        "notice": "Renouncing ownership will leave the contract without an owner, thereby removing any functionality that is only available to the owner."
      }
    }
  }
}